:020000040800F2
:1000000000000120511800088D020008910200082C
:1000100095020008990200089D02000800000000F7
:10002000000000000000000000000000A102000825
:10003000A502000800000000A9020008AD020008A7
:1000400099180008991800089918000899180008CC
:1000500099180008991800089918000899180008BC
:1000600099180008991800089918000899180008AC
:10007000991800089918000899180008991800089C
:10008000991800089918000899180008991800088C
:10009000991800089918000899180008991800087C
:1000A000991800089918000899180008991800086C
:1000B000991800089918000899180008991800085C
:1000C000991800089918000899180008991800084C
:1000D00099180008D91600089918000899180008FE
:1000E000991800089918000899180008991800082C
:1000F000991800089918000899180008991800081C
:10010000991800089918000899180008991800080B
:100110009918000899180008A517000899180008F0
:1001200099180008991800089918000899180008EB
:1001300000000000000000000000000000000000BF
:1001400000000000000000000000000000000000AF
:10015000000000000000000000000000000000009F
:10016000000000000000000000000000000000008F
:10017000000000000000000000000000000000007F
:10018000000000000000000000000000000000006F
:10019000000000000000000000000000000000005F
:1001A000000000000000000000000000000000004F
:1001B000000000000000000000000000000000003F
:1001C000000000000000000000000000000000002F
:1001D000000000000000000000000000000000001F
:0401E0005FF8E0F1F3
:1001E4000348044B834202D0034B03B118477047C2
:1001F4006800002068000020000000000548064B4D
:100204001B1AD90F01EBA301491002D0034B03B110
:1002140018477047680000206800002000000000B4
:1002240010B5064C237843B9FFF7DAFF044B13B13A
:100234000448AFF300800123237010BD6800002040
:10024400000000003822000808B5054B1BB1054921
:100254000548AFF30080BDE80840FFF7CFBF00BFFB
:10026400000000006C0000203822000808B500F0EF
:1002740013FB4FF4E01001F0F5F8482001F020F9E9
:1002840001F03AFA002008BDFEE700BFFEE700BF18
:10029400FEE700BFFEE700BFFEE700BF704700BFF8
:1002A400704700BF704700BF00F008BB0E4B82B020
:1002B4009A690E4942F001029A619A6902F00102B8
:1002C4000092009ADA6942F08052DA61DB6903F045
:1002D40080530193019B4B6823F0E06343F08073E8
:1002E4004B6002B0704700BF0010024000000140A4
:1002F4002DE9F04F0D6883B0002D00F0CE80002270
:100304008C4E92461346DFF830828C4F06E0013360
:1003140035FA03F402F1040200F0BF8001249C408A
:1003240034EA050E04EA050CF1D14D68122D00F2F1
:10033400B780122D1AD8DFE805F0BED0CCD7191932
:100344001919191919191919191919C8D300DFF824
:10035400F0E1754500F0AF800EF5702E754500F0A4
:10036400AA80AEF5801E754500F0A580BCF1FF0F94
:100374009CBF864693464FF00F0584BF00F1040EE0
:10038400A2F1200BDEF800400AFA0BF905FA0BFB88
:1003940024EA0B0444EA0904CEF800404C6814F043
:1003A400805F00F09080D6F818E003F003094EF067
:1003B400010EC6F818E0D6F818E04FEA89090EF0E5
:1003C400010ECDF804E0DDF804E023F0030E0EF195
:1003D400804E0EF5803EDEF808B005FA09F52BEAEA
:1003E4000505DFF860B158451ED00BF5806B584504
:1003F40000F08480DFF850B1584578D0DFF84CB174
:10040400584500F08980DFF848B1584500F08B80EA
:10041400DFF840B158450CBF4FF0050B4FF0060B09
:100424000BFA09F945EA0905CEF80850DFF828E186
:1004340014F4803FDEF8005014BF45EA0C0525EAA9
:100444000C05CEF80050DFF810E114F4003FDEF89C
:10045400045014BF45EA0C0525EA0C05CEF80450F7
:10046400DFF8F4E014F4801FDEF8085014BF45EA06
:100474000C0525EA0C05CEF80850374D14F4001F7E
:10048400EC681DD044EA0C04EC600D68013335FAC5
:1004940003F402F104027FF441AF03B0BDE8F08F2E
:1004A400454508D07FF653AFBD4204D0DFF8ACE039
:1004B40075457FF45BAF8D683DBB4FF0040A55E78B
:1004C40024EA0C04EC600D6821E7CC6804F1040A0A
:1004D4004CE7CC6804F1080A48E7D1F80CA045E7DA
:1004E400CC6804F10C0A41E74FF0000A3EE74FF0F4
:1004F400020B0BFA09F945EA090595E74FF0010BE0
:100504000BFA09F945EA09058EE7012D4FF0080AAF
:100514000CBF0461446129E74FF0030B0BFA09F99E
:1005240045EA090580E74FF0040B0BFA09F945EA9F
:10053400090579E700100240000022100000311084
:100544000000121000080140001001400014014096
:1005540000180140001C014000040140000032105A
:1005640002B9090401617047C36801EA030221EA80
:10057400030141EA02410161704700BF90F83D3038
:10058400012B27D10222036880F83D20DA68124942
:1005940042F001028B42DA6011D0104A93420ED02D
:1005A400B3F1804F0BD0A2F59832934207D002F5F5
:1005B4008062934203D002F58062934204D19A6828
:1005C40002F00702062A03D01A6842F001021A60F8
:1005D4000020704701207047002C01400034014086
:1005E400704700BF704700BF704700BF704700BF2F
:1005F400036810B51A690446910702D5DA689207B0
:100604005FD41A69500702D5DA68510746D41A69CB
:10061400120702D5DA6810072ED41A69D20602D559
:10062400DA68D00618D41A69D10702D5DA68D20775
:100634005DD41A69100602D5DA6811065FD41A6906
:10064400520602D5DA68500661D41A69910602D5B9
:10065400DA68920643D410BD6FF0100108221961C4
:100664002277DB69204613F4407F64D0FFF7BAFF9A
:10067400002223682277D6E76FF00801042219616B
:100684002277DB692046990752D1FFF7A9FF20465C
:10069400FFF7AAFF002223682277BEE76FF0040168
:1006A4000222196122779B69204613F4407F3CD1D2
:1006B400FFF796FF2046FFF797FF00222368227773
:1006C400A5E76FF002010122196102779B699B077C
:1006D40025D0FFF787FF00222368227791E76FF088
:1006E40020022046BDE810401A6100F0ADB86FF05A
:1006F400010220461A6101F05FF8236899E76FF060
:10070400800220461A6100F0A1F8236897E76FF091
:10071400400220461A61FFF769FF236895E7FFF757
:100724005FFF2046FFF760FFD5E7FFF75BFFC4E7F5
:10073400FFF758FFAEE7FFF753FF2046FFF754FFDC
:1007440096E700BF284A30B4904203681FD002F5F0
:10075400006290421BD0B0F1804F2FD0A2F59832A6
:1007640090422BD002F58062904227D002F580623D
:10077400904223D04D6923F080032B438C680A6890
:1007840003600123C462826230BC436170474C68D9
:1007940023F07003CA68234323F4407313434A6964
:1007A40023F08003134303608B6830BCC3620B687F
:1007B40083620B6903630123436170474A6823F032
:1007C4007003CC68134323F440734A69234323F032
:1007D400800313438C680A6803600123C462826245
:1007E40030BC4361704700BF002C014050B310B5CA
:1007F40090F83D30044603F0FF02F3B10223214692
:1008040084F83D3051F8040BFFF79CFF012384F872
:10081400463084F83E3084F83F3084F8403084F821
:10082400413084F8423084F8433084F8443084F80A
:10083400453084F83D30002010BD80F83C2000F0A5
:100844008FFFDBE701207047704700BF704700BF90
:1008540038B54FF47A730D4A054611780C4AB3FB48
:10086400F1F31268B2FBF3F000F01EFC08B90F2D8F
:1008740001D9012038BD0446024629464FF0FF3015
:1008840000F0C6FB034B20461D6038BD000000206D
:100894000800002004000020074A08B5136805205A
:1008A40043F01003136000F0A1FB0F20FFF7D0FF0B
:1008B400FFF7FCFC002008BD00200240034A044B63
:1008C40011681B780B441360704700BF840000203C
:1008D40000000020014B1868704700BF840000200E
:1008E400002800F0E4812DE9F04103680446DD07A7
:1008F40082B035D599494A6802F00C02042A00F006
:10090400ED804A6802F00C02082A00F0E380636874
:10091400B3F5803F10D0002B00F00A81B3F5A02F6F
:1009240000F080818D4B1A6822F480321A601A68B4
:1009340022F480221A6004E0884A136843F4803366
:100944001360FFF7C7FF854E054605E0FFF7C2FFBA
:10095400401B642800F2E88033689A03F6D52368C4
:100964009F0728D57D4A516811F00C0F00F096803E
:10097400516801F00C01082900F08C802369002BD8
:1009840000F016810122764B744E1A60FFF7A2FF25
:10099400054605E0FFF79EFF401B022800F2C480D5
:1009A40033689807F6D53368626923F0F80343EA9D
:1009B400C203336023681A0729D45D074BD5674BFC
:1009C400DA69D00000F184800125DA6942F08052AE
:1009D400DA61DB6903F080530093009B614E336856
:1009E400D90540F19180E368012B00F0F280002BDF
:1009F40000F0BE80052B594B1A6A00F0208122F0CA
:100A040001021A621A6A22F004021A62E6E0A36979
:100A1400002B4CD00122524B504EC3F88024FFF7D8
:100A240059FF054604E0FFF755FF401B02287BD819
:100A3400736A9B07F7D54C4B4C4A1B68A2FB0323F4
:100A44005B0A019300BF019B5A1E0192002BF9D14E
:100A540023685D07B3D4E369C3B1404D6A6802F00B
:100A64000C02082A00F0CD800022022B3C4B1A66AF
:100A740000F0ED80FFF72EFF044604E0FFF72AFFA5
:100A8400001B022850D82B689B01F7D4002002B029
:100A9400BDE8F0815268D6033FF570AF2F4A126863
:100AA400950725D52269012A22D00120EFE72C4A97
:100AB4002A4EC2F88034FFF70DFF054604E0FFF725
:100AC40009FF401B02282FD8736A9F07F7D4BFE79A
:100AD400002583E74A68D0037FF519AF1F4A1268DF
:100AE40091037FF53DAF6268002A7FF439AFDCE7FC
:100AF4001A4960690A6822F0F80242EAC0020A60F0
:100B04001A077FF55AAF82E7336843F48073336082
:100B1400FFF7E0FE07463368DA053FF564AFFFF7F9
:100B2400D9FEC01B6428F6D9032002B0BDE8F081C9
:100B34000A4D2B6823F480332B602B6823F4802325
:100B44002B60FFF7C7FE064604E0FFF7C3FE801BD9
:100B54006428E9D82B689B03F7D400E7001002400F
:100B6400000042420070004008000020D34D621093
:100B7400504E41F28838336A23F001033362336AFA
:100B840023F004033362FFF7A5FE074604E0FFF7F2
:100B9400A1FEC01B4045C7D8336A9807F7D4002D7F
:100BA4003FF459AF434AD36923F08053D36152E7EA
:100BB400414A404E1360FFF78DFE054604E0FFF7FF
:100BC40089FE401B0228AFD833689907F7D42368FD
:100BD400F1E6384A136A43F001031362FFF77AFE21
:100BE40041F288380646334F04E0FFF773FE801B5A
:100BF400404599D83B6A9B07F7D5002D3FF42BAFAE
:100C0400D0E7012B3FF451AF6B68226A03F48031C3
:100C140091427FF44AAF606A03F47013181A18BF44
:100C2400012034E703F18043A3F53C331A6842F40E
:100C340080221A601A6842F480321A6081E642F017
:100C440004021A621A6A42F001021A62C6E7FFF746
:100C540041FE064605E0FFF73DFE801B02283FF6F5
:100C640063AF2B689901F6D4236AB3F5803F05D1AD
:100C74006A68A16822F400320A436A6001200D4DBB
:100C8400616A6A680B4322F474120B4913436B6064
:100C94000866FFF71FFE044605E0FFF71BFE001B76
:100CA40002283FF641AF2B689A01F6D5EEE6012003
:100CB400704700BF001002400000424240F2012C85
:100CC40000B5184B87B00DF1180E0FCB0EE90F00CD
:100CD400154AADF804C0536803F00C01082903D089
:100CE400124807B05DF804FBC3F38341183169442B
:100CF400DB0311F8100C0ED553680C4AC3F34043C0
:100D040002FB00F018336B4413F8143CB0FBF3F00F
:100D140007B05DF804FB064B03FB00F007B05DF879
:100D240004FB00BF502200080010024000127A00A9
:100D340000093D00002800F08C80494A2DE9F0416B
:100D44001368044603F007038B420D460CD2136864
:100D540023F007030B431360136803F007038B426C
:100D640002D00120BDE8F0812368980714D5590703
:100D740004D53C494A6842F4E0624A601A0704D543
:100D840038494A6842F460524A603649A0684A6861
:100D940022F0F00202434A60DF0720D56268314B3B
:100DA400012A1B6857D0022A50D09907D9D52D4E55
:100DB40041F28838736823F0030313437360FFF729
:100DC40089FD074604E0FFF785FDC01B404545D873
:100DD4007368626803F00C03B3EB820FF3D1204A0B
:100DE400136803F00703AB4209D9136823F0070320
:100DF4002B431360136803F00703AB42B1D123689C
:100E04005A0706D51749E0684A6822F4E0620243AB
:100E14004A601B0707D5134A2169536823F46053BA
:100E240043EAC1035360FFF749FF03460D4A0E49E5
:100E340052680E48C2F30312895C0D4ACB40006825
:100E44001360FFF705FD0020BDE8F0819801AED4E2
:100E540087E7012070479E03A9D482E7032081E736
:100E640000200240001002406C2200080400002010
:100E740008000020044B054A5B680549C3F30223BC
:100E8400CB5C1068D8407047001002400800002076
:100E940064220008044B054A5B680549C3F3C22376
:100EA400CB5C1068D8407047001002400800002056
:100EB4006422000808B590F821200346022A03D0D2
:100EC400042201209A6308BD0268444811688242E2
:100ED40021F00E011160116821F0010111604049F7
:100EE40024D98A4253D014318A425CD014318A42C4
:100EF4005BD014318A4251D014318A425ED014310D
:100F04008A4261D0824265D001F567718A423ED03F
:100F140014318A4247D014318A4246D014318A426D
:100F240014BF4FF480324FF4805231E08A4222D011
:100F340014318A4235D014318A4239D014318A426C
:100F440029D014318A4236D014318A4239D08242AF
:100F54003DD001F567718A420DD014318A4220D008
:100F640014318A4224D014318A4214BF4FF480329F
:100F74004FF4805200E001221A494A604FF4807114
:100F84005A6B19840AB118469047002008BD012203
:100F940015494A60F2E74FF48052EDE74FF480526E
:100FA400F6E71022E8E71022F2E74FF48072EFE749
:100FB4004FF48072E0E74FF48032DDE74FF4803283
:100FC400E6E74FF48012D7E74FF48012E0E74FF0E2
:100FD4008072D1E74FF08072DAE700BF80000240F0
:100FE4000800024000000240000402404FF6FF0CDB
:100FF40006490302CA6803F4E06302EA0C021343DD
:1010040043F0BF6343F40033CB60704700ED00E06E
:101014001C4B00B5DB68C3F30223C3F1070EBEF11A
:10102400040F03F1040C28BF4FF0040EBCF1060FAB
:101034001BD94FF0FF3C033B0CFA03FC22EA0C02E1
:101044004FF0FF3C0CFA0EFC21EA0C0199400028F9
:1010540041EA02010CDB090100F16040C9B200F56C
:10106400614080F800135DF804FB00221346E7E7B3
:10107400054B00F00F000901C9B2034419765DF86D
:1010840004FB00BF00ED00E0FCEC00E0002807DBFF
:10109400012300F01F01034A40098B4042F820302D
:1010A400704700BF00E100E00138B0F1807F01D358
:1010B400012070474FF0E0234FF0F00C002207218D
:1010C40010B4044C586184F823C010469A6110BCD3
:1010D4001961704700ED00E04FF0E0221369042825
:1010E4000CBF43F0040323F004031361704700BFF3
:1010F40038B504460368C1681A691C4D22F440528D
:101104000A431A6182680069D9680243606921F45C
:10111400B05121F00C0102430A43DA605A69A16913
:1011240022F440720A43AB425A611BD0FFF7A2FE7D
:101134000346626803EB8303920003EB8303B3FB70
:10114400F2F364250A492068A1FB0342520905FB16
:1011540012331B013233A1FB0313120102EB5312AE
:10116400826038BDFFF796FE0346E2E7003801408F
:101174001F85EB5160B338B590F83930044603F05D
:10118400FF0203B32423226884F83930D36820464D
:1011940023F40053D360FFF7ABFF0025202123681D
:1011A40028461A6922F490421A615A6922F02A02E6
:1011B4005A61DA6842F40052DA60E56384F839105F
:1011C40084F83A1038BD80F8382000F005FAD9E7E1
:1011D4000120704790F83A30202B21D1F1B1EAB1C7
:1011E40090F83830012B1BD000234FF0220CC2851D
:1011F40082850268C36380F8383080F83AC081621F
:10120400D168184641F48071D160536943F00103F9
:101214005361D36843F02003D360704701207047C3
:1012240002207047704700BF08B590F83A30222B6F
:1012340024D18368B3F5805F21D0826A4BBB0369F4
:101244003BBB03685B681370826A0132C38D8262A0
:10125400013B9BB2C3858BB920210368DA6822F075
:101264002002DA60DA6822F48072DA605A6922F0C5
:1012740001025A6180F83A1000F0F6F908BD0369DA
:101284006BB90368826A5B68C3F3080322F8023B04
:10129400DCE703685B6803F07F031370D4E7826ABA
:1012A400CFE700BF704700BF036870B51A680446F3
:1012B4001607DD6859690CD1910601D5AE065DD4D7
:1012C400160601D5280632D4510601D56A064AD439
:1012D40070BD11F0010168D115F4907FF0D0D607EC
:1012E4000AD5E80540F19E80E06B40F00100E06320
:1012F40050074BD500295CD1960760D5100700F143
:101304008E80E16B0029E3D0900602D5A90600F196
:101314008D805A69E16B02F0400201F0080152EA43
:10132400010553D12046FFF7BDFFE56370BD94F876
:101334003920212ACCD1A268B2F5805F7BD0226A01
:10134400511C216212785A60E28C013A92B2E28412
:10135400002ABDD1DA6822F08002DA60DA6842F04D
:101364004002DA6070BD2021DA68204622F0400293
:10137400DA6084F83910FFF755FF70BDBDE870409E
:10138400FFF752BFE805AFD4560712D4960716D517
:101394000029B3D0E16B41F00401E1631107B0D53A
:1013A400E16B41F00801E163ABE7D007EAD45607EB
:1013B40030D5E06B40F00200E0639007EAD41607F2
:1013C4009FD505F0200008439BD0E9E72021DA6887
:1013D40022F49072DA605A6922F001025A6184F8A8
:1013E4003A105A69520611D55A69606B22F04002CC
:1013F4005A6158B1154B4363FFF75CFD00283FF475
:1014040067AF606BBDE87040436B18472046FFF739
:1014140049FF70BD9007BDD41107C1D471E7A90677
:10142400BED46EE756073FF567AFAFE72046FFF738
:10143400FBFE23686DE72269002A80D1226A32F814
:10144400021BC1F30801596022627DE755140008AC
:1014540008B50023406AC385C384FFF723FF08BD92
:10146400704700BFD0B5002301264FF48037022413
:101474004FF4803290B00F9006A8CDE90667CDE90D
:101484000933CDE90B33CDE90233CDE904330893B5
:1014940001930D940E92FFF723FA00B1FEE7034681
:1014A4000F264FF48062214601A80294039305930A
:1014B40001960492FFF73EFC00B1FEE710B0D0BDE8
:1014C40000234FF0E02210B5044613611846FFF7DD
:1014D40003FE024BE4081C8010BD00BF88000020FE
:1014E4004FF47A73224930B4A1FB00218D0903FB28
:1014F40015059842ADB21AD34FF0E02200201D4BDF
:1015040089091C881C4B03FB04F454619061136922
:1015140043F001031361136903F00113012BFAD0A3
:101524001369013923F0010313619061EDD10DB901
:1015340030BC70474FF47A704FF0E02200210D4B1D
:101544001B8805FB03F300FB03F3536191611369EB
:1015540043F001031361136903F00113012BFAD063
:1015640030BC0021136923F00103136191617047BA
:10157400D34D62108800002040420F00101E0ADD87
:10158400054A01EB000C13685B06FCD511F8013B1E
:101594008C455360F7D17047003801400023014661
:1015A4000C2210B509480A4C20602046C4E90113F6
:1015B400C4E90523C4E90333FFF7DCFD2046BDE895
:1015C400104001220349FFF705BE00BF0038014067
:1015D4008C000020CC000020214B02689A4200D0ED
:1015E4007047022070B503244FF40076012503F5FB
:1015F40058439A6988B042F004029A619A6902F0E9
:1016040004020192019A996941F00401996199696E
:1016140001F004010291029A996941F480419961AF
:101624009B6904A903F48043039305900D48039B2D
:10163400CDE906540496FEF75BFE00234FF4806266
:1016440004A90848CDE90423FEF752FE2520FFF73C
:101654001DFD224621462520FFF7DAFC08B070BDA7
:101664000038014000080140164B02689A4200D03D
:101674007047154AB2F9001013880029F8DB1349A2
:101684005804097804D50A2912D000231380EFE7FF
:101694000D2913D0C3F30D00013310B49BB20C4CCD
:1016A400C72B2154138001D90023138010BC704729
:1016B4006FEA43436FEA53431380704743F4804314
:1016C4001380704700380140CE000020CC00002079
:1016D400D000002038B50648FFF7E6FD054D044C60
:1016E400012229462046FFF775FD0028F8D138BDB0
:1016F4008C000020CC00002008B500F06BF84FF4FB
:10170400E130FFF74BFF094800F0DEF941F61F41D5
:1017140041F2873000F00EF8054C20462021FEF7F8
:1017240023FFC820FFF7DCFEF7E700BF7C22000898
:10173400000C01400246002310B50748074C206006
:101744002046C4E90113E260FFF750F82046BDE8E3
:101754001040FEF713BF00BF0010004098010020A6
:101764000E4B02689A4200D0704703F50033D969E2
:1017740000B541F01001D961DB6983B003F01003B7
:101784000193362003220121019BFFF741FC3620FF
:1017940003B05DF804EBFFF779BC00BF0010004014
:1017A40010B5044C2046FEF723FF6FF001022368B6
:1017B4001A6110BD98010020044B02689A4200D0BF
:1017C400704720210248FEF7CFBE00BF0010004042
:1017D40000180140D0B52026012701200321202430
:1017E400174B86B09A6942F008029A619A6902F02E
:1017F40008020092009A9A6942F040029A619B6939
:10180400CDE902670F4F104E03F04003CDE9040108
:101814000193384602A9019BFEF76AFD304602A9EE
:101824000294FEF765FD214638460122FEF798FE34
:10183400012221463046FEF793FE06B0D0BD00BF1C
:1018440000100240000C014000180140002103E098
:101854000B4B5B58435004310A480B4B42189A42D5
:10186400F6D30A4A02E0002342F8043B084B9A42AA
:10187400F9D3FFF7F5FD00F055FAFEF7F7FC7047D2
:101884008C2200080000002068000020680000206E
:1018940030030020FEE70000002310B50446C0E931
:1018A4000033C0E90433836081814366C28183616C
:1018B400194608225C3000F0E7F90D4B246263629C
:1018C4000C4BA3620C4BE3620C4B23630C4B9C420A
:1018D40006D003F16802944202D0D0339C4205D171
:1018E40004F15800BDE8104000F040BA10BD00BF3C
:1018F400DD1A0008FF1A0008371B00085B1B0008EC
:10190400E0010020024A0349034800F069B800BF1F
:101914000C000020552000081C00002041680C4BDE
:1019240010B59942044601D000F092FBA168094B1E
:10193400994202D0204600F08BFBE168064B9942A5
:1019440004D02046BDE8104000F082BB10BD00BFAB
:10195400E001002048020020B002002010B50B4B2B
:101964000B4C0C4A20461A6004210022FFF794FF16
:1019740004F1680001220921FFF78EFF04F1D00071
:101984000222BDE810401221FFF786BF1803002091
:10199400E001002009190008014800F0E8B900BF7F
:1019A40021030020014800F0E3B900BF2103002017
:1019B40010B50446FFF7F0FF236A1BB1BDE81040E1
:1019C400FFF7F0BF044B2362044B1B68002BF5D1D7
:1019D400FFF7C4FFF2E700BF211900081803002035
:1019E4002DE9F8430746884614460026D4E90195B4
:1019F400B9F1010905D52468002CF7D13046BDE8BA
:101A0400F883AB89012B07D9B5F90E30013303D024
:101A140029463846C04706436835E9E7036A70B586
:101A240005460E4684680BB9FFF7C2FF636EDB07F9
:101A340005D4A389980502D4A06D00F098F9A38970
:101A4400190702D52369002B35D12146284600F019
:101A5400C5F880B34FF0FF35636EDA0705D4A38968
:101A64009B0502D4A06D00F083F9284670BD002BBD
:101A740015DB23685A1C22601970A36816F8011F2D
:101A8400013BA3600029F2D1002B16DA22460A2179
:101A9400284600F064F80130DCD00A25DCE7A269AE
:101AA4009A4201DC0A29E4D12246284600F057F87C
:101AB4000130E2D1CEE7013EDFE723685A1C226001
:101AC4000A221A70E9E70000024B01461868FFF782
:101AD400A5BF00BF1800002010B50C46B1F90E10C8
:101AE40000F0FCF80028ABBF636DA3891B1823F436
:101AF4008053ACBF6365A38110BD2DE9F0411F463F
:101B04008B890546DB050C46164605D502230022C3
:101B1400B1F90E1000F0D0F8A389324623F48053B3
:101B2400A38128463B46B4F90E10BDE8F04100F00D
:101B3400E7B810B50C46B1F90E1000F0BDF8431C1F
:101B4400A38915BF606523F4805343F48053A381B4
:101B540018BFA38110BDB1F90E1000F09DB8F8B5FF
:101B64000E461446054618B1036A0BB9FFF720FF69
:101B7400A369A360A3891A0701D5236943B9214640
:101B8400284600F02BF818B14FF0FF373846F8BD5F
:101B940023682269F6B2981A63693746834205DCE2
:101BA4002146284600F054FA0028EDD1A368013BF1
:101BB400A36023685A1C22601E706269431C9A4207
:101BC40004D0A389DB07E1D50A2EDFD121462846BC
:101BD40000F03EFA0028D9D0D6E7000038B5294BEA
:101BE400054618680C4618B1036A0BB9FFF7E0FE06
:101BF400B4F90C30190722D4DA0607D409222A6072
:101C040043F040034FF0FF30A38133E0580712D56F
:101C1400616B41B104F14403994202D0284600F0BB
:101C2400A9F800236363A38923F02403A381002379
:101C3400636023692360A38943F00803A3812369B4
:101C44004BB9A38903F42073B3F5007F03D0214675
:101C5400284600F04AFAB4F90C3013F001020AD015
:101C64000022A26062695242A261226942B913F061
:101C74008000C5D138BD990758BF6269A260F4E7F6
:101C84000020F7E71800002003460244934200D1E5
:101C9400704703F8011BF9E738B50023054D0446E6
:101CA40008462B6000F090FA431C02D12B6803B164
:101CB400236038BD1C03002038B50446084611468D
:101CC4000022054D2A601A4600F096FA431C02D100
:101CD4002B6803B1236038BD1C03002038B50446CB
:101CE400084611460022054D2A601A4600F08CFA77
:101CF400431C02D12B6803B1236038BD1C030020B0
:101D040038B50446084611460022054D2A601A4695
:101D1400FFF734FC431C02D12B6803B1236038BDA8
:101D24001C03002070B500260C4D0D4C641BA41040
:101D3400A64209D100F07EFA00260A4D0A4C641B23
:101D4400A410A64205D170BD55F8043B984701364E
:101D5400EEE755F8043B98470136F2E78422000881
:101D640084220008842200088822000870477047F3
:101D74007047000038B50546002940D051F8043CAE
:101D84000C1F002BB8BFE41800F0D6F81C4A1368E7
:101D940033B9636014602846BDE8384000F0D2B817
:101DA400A34208D9206821188B4201BF19685B68D7
:101DB40009182160EDE71A465B680BB1A342FAD912
:101DC40011685018A0420BD1206801445018834276
:101DD4001160E0D118685B68084410605360DAE76A
:101DE40002D90C232B60D6E7206821188B4201BF4F
:101DF40019685B680918216063605460CBE738BDDB
:101E04002803002070B50F4E0C463168054611B901
:101E140000F0CAF930602146284600F0C5F9431C99
:101E240003D14FF0FF34204670BDC41C24F00304DA
:101E3400A042F8D0211A284600F0B6F90130F2D1B8
:101E4400EFE700BF240300202DE9F041CD1C25F06D
:101E5400030508350C2D38BF0C25002D064601DB83
:101E6400A94204D90C2333600020BDE8F081314F2E
:101E740000F062F83B681C4644BB29463046FFF735
:101E8400C1FF431C044650D13C682146002941D17E
:101E9400002C44D02368304604EB030800F084F996
:101EA40080453CD1216830466D1A2946FFF7AAFFC8
:101EB400013034D023682B4423603B68002B36D098
:101EC4005A68A24229D100225A600EE02268521BAD
:101ED4001DD40B2A16D96119A342256018BF596075
:101EE400636808BF396062514B60304600F02AF8DD
:101EF40004F10B00231D20F00700C21AB5D01B1AF1
:101F0400A350B2E7A3426268DED13A60EDE723460C
:101F14006468B1E70C464968B8E71346CEE70C237A
:101F24003046336000F00EF89EE70560DDE75B6045
:101F3400FFDE00BF280300200148FFF718BF00BFE1
:101F4400200300200148FFF713BF00BF2003002037
:101F5400B1F90C20F8B5170705460C4656D44B6862
:101F6400002B02DC0B6C002B3DDDE66A002E3AD020
:101F7400002312F480522F68216A2B6025D0626DF1
:101F8400A389580705D56368D21A636B0BB1236C18
:101F9400D21A216A00232846E66AB047411C24D09D
:101FA4000023636023692360A389DA0400D5606594
:101FB400616B2F60B9B104F14403994202D0284601
:101FC400FFF7D8FE002363630DE001232846B047E2
:101FD400461C0246D4D12B68002BD1D01D2B01D036
:101FE400162B2AD12F6000202EE02A68B4F90C3079
:101FF40042B11D2A01D0162A21D10023636023692E
:102004002360D5E7626022692260CEE70F69002F62
:10201400E9D0930718BF00230E6808BF4B69F61B6D
:102024000F608B60002EDEDD33463A462846216A77
:10203400D4F828C0E047002807DCB4F90C304FF08E
:10204400FF3043F04003A381F8BD0744361AE9E7A3
:1020540038B50B6905460C4613B90025284638BD2A
:1020640018B1036A0BB9FFF7A3FCB4F90C30002BC9
:10207400F3D0626ED00704D4990502D4A06DFFF7A3
:1020840076FE28462146FFF763FF636E0546DA07AE
:10209400E4D4A3899B05E1D4A06DFFF769FEDDE7D5
:1020A40070B50C46B1F90E10154600291E4696B0BF
:1020B4000CDAA389002113F0800F14BF40234FF4DE
:1020C4008063002031602B6016B070BD6A4600F05A
:1020D40049F80028EDDB019901F47041A1F50053A2
:1020E400594259414FF48063EBE78B89F7B59D075B
:1020F40006460C4607D504F14703236023610123F8
:10210400636103B0F0BD6A4601ABFFF7C9FF009FEE
:10211400054639463046FFF797FE48B9B4F90C3006
:102124009A05EED423F0030343F00203A381E2E70C
:10213400A389C4E9040743F08003A381019B2060C1
:102144005BB13046B4F90E1000F01EF828B1A38933
:1021540023F0030343F00103A381A3891D43A58155
:10216400CFE7000038B50023064D04460846114663
:102174002B6000F031F8431C02D12B6803B12360BB
:1021840038BD00BF1C03002038B50023054D0446AC
:1021940008462B6000F028F8431C02D12B6803B1D9
:1021A400236038BD1C03002038B50023054D0446C8
:1021B40008462B6000F030F8431C02D12B6803B1B1
:1021C400236038BD1C0300205822024B4FF0FF301F
:1021D4001A6070471C0300205822024B4FF0FF3056
:1021E4001A6070471C0300205822024B00201A601A
:1021F400704700BF1C0300205822024B4FF0FF30F1
:102204001A6070471C0300205822024B4FF0FF3025
:102214001A6070471C030020044A05491368002B08
:1022240008BF0B4618441060184670472C03002062
:1022340030030020F8B500BFF8BC08BC9E467047C8
:0C224400F8B500BFF8BC08BC9E4670470F
:1022500002030405060708090A0B0C0D0E0F1010E7
:102260000000000000000000010203040000000064
:10227000000000000102030406070809737373736A
:04228000730D0000DA
:042284004D020008FF
:042288002502000823
:10228C0001000000100000000024F4000000000019
:10229C0003000000E00100201C00002000000000F2
:1022AC00E001002048020020B002002000000000E5
:1022BC000000000000000000000000000000000012
:1022CC000000000000000000000000000000000002
:1022DC0000000000000000000000000000000000F2
:0822EC000000000000000000EA
:040000050800185186
:00000001FF
